:100200000C9468010C9490010C9490010C94900152
:100210000C9490010C9490010C9490010C9490011A
:100220000C9490010C9490010C9490010C9490010A
:100230000C9490010C9490010C945B0E0C940C0F98
:100240000C9490010C9490010C9490010C949001EA
:100250000C9490010C9490010C9490010C949001DA
:100260000C9490010C9490010C9490010C949001CA
:100270000C9490010C9490010C9490010C949001BA
:100280000C9490010C9490010C9490010C949001AA
:100290000C94880D0C94120E0C94EC0D0C9490019F
:1002A000084AD73B3BCE016E84BCBFFDC12F3D6CDD
:1002B00074319ABD56833DDA3D00C77F11BED9E443
:1002C000BB4C3E916BAAAABE000000803F00CC0F41
:1002D00011241FBECFEFCDBFDFE3DEBF18E2A0E0E9
:1002E000B8E2E2E3F0E302C005900D92AA30B10754
:1002F000D9F72AE2AAE0B8E201C01D92AF35B207F1
:10030000E1F711E0C8E6D1E004C02197FE010E94A8
:100310003C16C736D107C9F70E943F100C947617D8
:100320000C940001FC0154894589252F30E0842F6D
:1003300090E0821B930B541710F0CF96089501970D
:100340000895FC0192898389981761F0A389AE0F03
:10035000BF2FB11D59968C9193899F5F9F73938B8B
:1003600090E008958FEF9FEF0895FC0192898389B3
:10037000981731F08389E80FF11D818D90E0089581
:100380008FEF9FEF0895FC0192892389892F90E0D8
:10039000805C9F4F821B91098F7399270895CF939B
:1003A000DF93EC01E881F9810680F781E02D099562
:1003B000EC85FD8586818F738683EC85FD8585813F
:1003C0008F7585838B898A8B198ADF91CF910895E8
:1003D000CF93DF93FC0194898589C485D5859813D3
:1003E00006C08D818F7D8D83DF91CF910895A58982
:1003F000AE0FBF2FB11DA75ABF4F2C91858990E03A
:1004000001968F739927858B80E48C83A485B585AD
:1004100012962C93948985899813E6CFA485B58587
:1004200015968C9115978F7D15968C9387898823C7
:10043000D9F2808D80931301178AD6CFDC011C96E8
:10044000ED91FC910FB607FE03C0258125FD04C088
:10045000248125FD0C94E8010895EF92FF920F93FB
:100460001F93CF93DF93EC0181E0898B9C898D8969
:1004700098131CC0AC85BD8514968C91149785FF8C
:1004800015C012966C93AC85BD8580E414968C9350
:10049000EC85FD8585818F7D858381E090E0DF910E
:1004A000CF911F910F91FF90EF90089580911101CE
:1004B00080FF08C080911301888F8E89809313017B
:1004C00081E08F8BF62E0C8910E00F5F1F4F0F73AA
:1004D0001127E02E8D898E1104C0CE010E941E02CC
:1004E000F9CFEC89EC0FFD2FF11DE75AFF4FF08299
:1004F0000C8BEC85FD8585818062CECFCF93DF9319
:10050000FC0121892223C9F0EC018091110180FFB7
:1005100008C080911301808F86898093130181E048
:10052000878BEC85FD85858185FD03C0848186FDF3
:1005300004C0CE010E941E02F4CFDF91CF91089536
:10054000282F30E0F901E559F04940814F3F09F487
:100550004EC0893258F4F901E051F149E081EE23AF
:1005600029F0E13099F010F0E63010F1F901EE5B7E
:10057000F049E081A0E2EA9FF0011124FC5F808154
:10058000842311F1672BF1F446830895E091010A69
:10059000D901A75EB0495C915C5F81E090E001C049
:1005A000880F5A95EAF780958E238093010ADECF53
:1005B00080E1E89FF0011124E05AF54F81818F7EA0
:1005C0008183D4CF45830895275E3049D9018C912A
:1005D000309771F08F3F61F07096E80FF11D9FB773
:1005E000F8948081672B39F4877F80839FBF0895BB
:1005F000F0E0E0E0F4CF8860F8CFCF93DF9390E0B5
:10060000FC01E559F04920812F3F71F0FC01EE5BC0
:10061000F049A08130E2A39FD0011124BC5F61307A
:10062000710529F411962C93DF91CF910895875E7F
:100630009049EC01E881EF3F89F0CD014096E80F49
:10064000F92FF11D9FB7F89412962C938081623098
:10065000710539F4886080839FBFE6CFF0E0E0E069
:10066000F1CF877FF8CF893210F40C94A00208955F
:100670000F931F93CF93DF93D82FC62F80914C2ACF
:1006800090914D2A009709F44DC0DC01ED91FC9149
:100690000684F785E02D0091532A1091542A209169
:1006A000552A3091562A4091572A5091582A6091E4
:1006B000592A70915A2A099570E060E080914F2A7A
:1006C0000E94330380914C2A90914D2ADC01ED91D8
:1006D000FC910480F581E02D6D2F099580914C2AC5
:1006E00090914D2ADC01ED91FC910480F581E02D83
:1006F0006C2F099561E070E080914F2A0E943303CE
:1007000080914C2A90914D2ADC01ED91FC9100885A
:10071000F189E02D099581E090E0DF91CF911F9163
:100720000F91089580914A2A90914B2ADC01ED9116
:10073000FC910688F789E02D60914E2A09958091F9
:100740004A2A90914B2ADC01ED91FC910190F081B5
:10075000E02D6D2F099580914A2A90914B2ADC015A
:10076000ED91FC910190F081E02D6C2F0995809125
:100770004A2A90914B2ADC01ED91FC91028CF38D79
:10078000E02D099521E090E0811120E0822FC5CF76
:10079000893210F40C94FD020895CF92DF92EF920B
:1007A000FF920F931F93CF93DF93EC016A017B01BC
:1007B000022F8989882339F0E881F9810288F38939
:1007C000E02DCE01099598898091E205892B8093CF
:1007D000E2051FB7F89460E070E281EA97E0A701B4
:1007E00096010E94BF1569017A018FEFC81AD80AD5
:1007F000E80AF80AF694E794D794C794EC85FD8547
:1008000086818D7F8683EC85FD8586818683198A26
:10081000A09123110A2E000CBB0BA70196010E9488
:100820000B1620E034E040E050E00E94E115EC853A
:10083000FD85C20ED31EE41EF51EC086D186EC8552
:10084000FD850783EC85FD858681806C8683EC853C
:10085000FD858581806885838E8562E070E00E94D9
:10086000C8038F8561E070E00E9433038F8561E0EB
:1008700070E00E94C8031FBFDF91CF911F910F91BD
:10088000FF90EF90DF90CF900895CF93DF938FB7D5
:10089000F89420915F29309160294091612950910D
:1008A0006229E091BA0A9091B60A90FF06C02F5FC4
:1008B0003F4F4F4F5F4FE091BA0A8FBFA0915D2924
:1008C000B0915E29C0915B29D0915C290E940016ED
:1008D000EC9F9001ED9F300D1124620F731F811D5D
:1008E000911DDF91CF910895AF92BF92CF92DF9289
:1008F000EF92FF920F931F93CF93DF936C017B01D5
:100900008B01040F151FEB015E01AE18BF08C01765
:10091000D10759F06991D601ED91FC910190F081D8
:10092000E02DC6010995892B79F7C501DF91CF919B
:100930001F910F91FF90EF90DF90CF90BF90AF90FD
:10094000089581E008950895EF92FF920F931F9309
:10095000CF93DF937C01EB018B01040F151FC017B0
:10096000D10759F0D701ED91FC910480F581E02D7C
:100970006881C70109958993F2CFDF91CF911F91CB
:100980000F91FF90EF9008950F931F93CF93DF93F4
:10099000EC018B018091C008E881F9810480F58128
:1009A000E02D86FD13C0612FCE010995182FE88137
:1009B000F9810480F581E02D602FCE010995082F83
:1009C000C801DF91CF911F910F910895CE01099534
:1009D000082FE881F9810480F581E02D612FCE0197
:1009E0000995182FEDCF00006093C4088091C308CB
:1009F00087FFFCCF8091C40808958F929F92AF9299
:100A0000BF92CF92DF92EF92FF920F931F93CF93FB
:100A1000DF93FC018085882319F081FF0EC0789454
:100A2000DF91CF911F910F91FF90EF90DF90CF90CA
:100A3000BF90AF909F908F90089580FFF1CF8284F8
:100A40009384A484B584C12CD12C760110E0940148
:100A5000A501B601C701A0E00E94301699F12170EE
:100A600030E040E050E060E070E080E090E00E9424
:100A70003016D9F0D0E0C0E0103370F4C12FC69525
:100A8000C695C69580E2C89FE0011124C05FDB4F88
:100A9000812F8770C80FD11DCF01810F911DDC01FF
:100AA00052968C919881892B88839401A501B60177
:100AB000C70101E00E94151649015A016B017C0132
:100AC0001F5FC5CF86849784A088B188C12CD12CA4
:100AD000760110E29401A501B601C701A0E00E94D1
:100AE000301609F49DCF217030E040E050E060E026
:100AF00070E080E090E00E943016D9F0D0E0C0E0D5
:100B0000103370F4C12FC695C695C695B0E2CB9F41
:100B1000E0011124C05FDB4F812F8770C80FD11D0A
:100B2000CF01810F911DDC0152968C919881892B08
:100B300088839401A501B601C70101E00E94151642
:100B400049015A016B017C011F5FC4CFFC016F3F5B
:100B5000710581F1808581FD2DC0603271055CF5E4
:100B600081E090E002C0880F991F6A95E2F78095B6
:100B70009095092E000CAA0BBB0B4285538564850A
:100B8000758584239523A623B72382879387A4871B
:100B9000B58782859385A485B585892B8A2B8B2B78
:100BA00049F486859785A089B189892B8A2B8B2B5F
:100BB00009F4108608956052710981E090E002C046
:100BC000880F991F6A95E2F780959095092E000C81
:100BD000AA0BBB0B468557856089718984239523B1
:100BE000A623B72386879787A08BB18BD2CFFC0132
:100BF0006F3F7105E9F1603371051CF082E0808779
:100C0000089580858160808760327105C4F481E039
:100C100090E002C0880F991F6A95E2F7092E000C38
:100C2000AA0BBB0B4285538564857585842B952B58
:100C3000A62BB72B82879387A487B5870895605228
:100C4000710981E090E002C0880F991F6A95E2F770
:100C5000092E000CAA0BBB0B46855785608971894C
:100C6000842B952BA62BB72B86879787A08BB18BD0
:100C70000895E0ECF8E020812E7F2083FC011782AC
:100C80000895E0ECF8E082818E7F82830895E0ECA5
:100C9000F8E082818160828308950F9391E09093C0
:100CA000302910922F2960932D2970932E2940937B
:100CB0002C2920932B2910922A291092292900935C
:100CC0002829880F8093272923E030E044E050E072
:100CD00080912C29882341F02093252930932629BF
:100CE000809127298E7F0BC080912B29882351F07A
:100CF000409325295093262980912729816080934C
:100D0000A70808C080912C29811104C080912B294B
:100D1000882311F380912F298823E1F380912F29D3
:100D20008330B1F280912B29882321F080912929E9
:100D30000F91089580912F29823031F0853031F064
:100D4000813031F480E0F4CF81E0F2CF83E0F0CF66
:100D500084E0EECFE0EAF8E091859066918722E0AA
:100D600030E020932529309326298093172910926B
:100D70001629089581E0809316291092172993E08F
:100D80009093AA089091AB0891FF10C0109223296C
:100D9000E0911429F091152909958093222985E085
:100DA00090E0809325299093262908951092242974
:100DB0008093212986E090E0F4CF8F929F92AF92AA
:100DC000BF92CF92DF92EF92FF92CF93DF93603486
:100DD0002DE0720723E08207910508F454C06115E5
:100DE00025E372072CE08207910508F445C06038BE
:100DF0007F448241910508F046C0C8E7D0E020E476
:100E000032E44FE050E08090002890900128A090BC
:100E10000228B0900328C501B4010E94BF156901E2
:100E20007A018AE0C81AD108E108F108C501B401C5
:100E300020E432E44FE050E00E94BF15DE010E9442
:100E4000001628EE33E040E050E00E94BF15C21AC1
:100E5000D30AE40AF50AF694E794D794C794C092AB
:100E6000A608DF91CF91FF90EF90DF90CF90BF90D9
:100E7000AF909F908F900895CCE2D1E020E83AE1C6
:100E800046E050E0C0CFC8EED3E020EA36E841E0CB
:100E900050E0B9CF6093122970931329089560939D
:100EA0001029709311290895E0911229F0911329C6
:100EB000309741F010920F2910920E2909958091D8
:100EC0000E29089580E00895E0911029F0911129EC
:100ED000309759F030910D2920910C29321728F0C4
:100EE00010920D2980930C29099408950895E0919A
:100EF0000D2980910C29E81730F4F0E0E457F74D04
:100F0000808190E008958FEF9FEF089590910D29D3
:100F100080910C292FEF3FEF981748F4E92FF0E06C
:100F2000E457F74D208130E09F5F90930D29C90170
:100F3000089580910C2990910D29891B990B089592
:100F4000CF92DF92EF92FF920F931F93CF93DF9395
:100F50007C018A01EB016B01C40ED51ECC15DD05A9
:100F600051F06991D701ED91FC910190F081E02D54
:100F7000C7010995F3CFC801DF91CF911F910F9160
:100F8000FF90EF90DF90CF90089520910E2927FFDA
:100F900008C021E030E0FC012283338390E080E050
:100FA000089580910F29E82FF0E0E45FF74D60830A
:100FB0008F5F80930F2980930E2981E090E0089540
:100FC000DC01ED91FC91008CF18DE02D61E0099444
:100FD0000F9380912529909126290197A1F4809162
:100FE0003029811112C0062F20E040910E296CE0BB
:100FF00078E280910B280E944D0610920F291092E2
:101000000E290F91089580E0F8CF81E0F6CF60932C
:101010000B2810920F2910920E290895DC01ED91F2
:10102000FC91048CF58DE02D21E009940F938CE860
:1010300098E28093182990931929809125299091FD
:1010400026290197C9F480913029811117C0FA012E
:101050004138510510F0E0E8F0E0022F862F2E2FE6
:1010600040E070E060E00E944D0610920D298093F0
:101070000C2990E00F91089580E0F7CF81E0F5CF43
:10108000CB01BA010C94DD06E0EAF8E01382168287
:1010900081E08583148611861092252910922629D5
:1010A000089510920D2910920C2910920F29109278
:1010B0000E298091252990912629892BD9F482E047
:1010C00090E080932529909326291092242910924C
:1010D0002329109216291092172910920A2810928B
:1010E0002129660F6093AC0881EE8093A90881E006
:1010F0008093A30884E597E08093142990931529A1
:101100008CE098E280931A2990931B2984E697E05B
:1011100080931F29909320298CE898E280931C29C2
:1011200090931D2980E880931E29089510920D291F
:1011300010920C2910920F2910920E2980912529C6
:1011400090912629892BF1F48091E3058093E305A2
:1011500081E090E0809325299093262910922929F7
:1011600010922A291092302910922F2981EC809315
:10117000A30860EA76E881E090E00E94DD0681E065
:101180008093A508089590E080E00895AF92BF9203
:10119000CF92DF92EF92FF920F931F93CF93DF9343
:1011A000EC01D62E5A0179018C819D81009709F4BA
:1011B00045C0DC01ED91FC910684F785E02D0B859F
:1011C0001C852D853E854F85588969897A890995C1
:1011D00070E060E08F810E9433038C819D816D2DD2
:1011E0006068DC01ED91FC910480F581E02D0995AA
:1011F0008C819D81DC01ED91FC910084F185E02DD5
:10120000A701B501099561E070E08F810E94330369
:101210008C819D81DC01ED91FC910088F189E02DAC
:10122000099581E090E0DF91CF911F910F91FF90A0
:10123000EF90DF90CF90BF90AF9008958A819B810F
:10124000DC01ED91FC910688F789E02D6E8109950E
:101250008A819B81DC01ED91FC910190F081E02D70
:101260006D2D09958A819B81DC01ED91FC91008CAB
:10127000F18DE02D60E00995811122C08A819B816A
:10128000DC01ED91FC91068CF78DE02DA7016E81BC
:1012900009958E159F05B9F465018A819B81DC0152
:1012A000ED91FC910284F385E02D0995F60181937F
:1012B0006F01CF018A199B098E159F0570F3B1CF7D
:1012C0008FEF9FEFB0CF90E080E0ADCFCF93DF9373
:1012D0001F92CDB7DEB721E030E0AE014F5F5F4F28
:1012E0000E94C608019731F4898190E00F90DF9148
:1012F000CF9108958FEF9FEFF9CF60E070E080E528
:1013000092E408956EE10E94660982FB882780F9C5
:1013100090E008950F931F93CF93DF9300D0CDB744
:10132000DEB78B0122E030E0AE014F5F5F4F60E23D
:101330000E94C608009781F440E050E060EC7FE72F
:10134000F80140835183628373830F900F90DF9184
:10135000CF911F910F91089569817A81072E000C1A
:10136000880B990B0E94F21320E030E040E85DE327
:101370000E94D61420E030E048EC51E40E94701244
:10138000F801608371838283938381E090E0DDCFF5
:1013900060E070E080ED92E408956EE10E946609DD
:1013A0008695817090E00895CF92DF92EF92FF9240
:1013B0000F931F93CF93DF93CDB7DEB72697CDBFA3
:1013C000DEBF6B017A01890126E030E0AE014F5F9C
:1013D0005F4F62E20E94C6080097F9F440E050E0D7
:1013E00060EC7FE7F6014083518362837383F701EA
:1013F0004083518362837383F80140835183628306
:1014000073832696CDBFDEBFDF91CF911F910F91E1
:10141000FF90EF90DF90CF90089569817A81072E39
:10142000000C880B990B0E94F21320E030E04AEF89
:1014300054E40E94D61420E030E040E058E30E94DB
:10144000D614F60160837183828393836B817C81E0
:10145000072E000C880B990B0E94F21320E030E05D
:101460004AEF54E40E94D61420E030E040E058E314
:101470000E94D614F70160837183828393836D8108
:101480007E81072E000C880B990B0E94F21320E03E
:1014900030E04AEF54E40E94D61420E030E040E00F
:1014A00058E30E94D614F80160837183828393838A
:1014B00081E090E0A6CF6EE10E94660981709927D5
:1014C0000895CF92DF92EF92FF920F931F93CF93E5
:1014D000DF93CDB7DEB72697CDBFDEBF6B017A01B4
:1014E000890126E030E0AE014F5F5F4F68E20E9465
:1014F000C6080097F9F440E050E060EC7FE7F601A1
:101500004083518362837383F701408351836283F5
:101510007383F80140835183628373832696CDBF22
:10152000DEBFDF91CF911F910F91FF90EF90DF9081
:10153000CF90089569817A81072E000C880B990B52
:101540000E94F21320E030E040E850E40E94D614FC
:1015500020E030E040E058E30E94D614F6016083BA
:101560007183828393836B817C81072E000C880BAF
:10157000990B0E94F21320E030E040E850E40E9412
:10158000D61420E030E040E058E30E94D614F70182
:1015900060837183828393836D817E81072E000C2B
:1015A000880B990B0E94F21320E030E040E850E4F1
:1015B0000E94D61420E030E040E058E30E94D614A8
:1015C000F801608371838283938381E090E0A6CFEA
:1015D0000895DC01ED91FC910088F189E02D23E074
:1015E00030E00994FC0101900020E9F73197AF0148
:1015F000481B590BBC0183E699E20C9474048F924A
:101600009F92AF92BF920F931F93CF93DF93CDB76B
:10161000DEB7A197CDBFDEBF19A2423008F44AE081
:101620008E010F5D1F4F842E912CB12CA12CA50192
:1016300094010E94BF15E62FB901CA01EA30DCF41B
:10164000E05DD801EE938D01232B242B252B79F718
:1016500090E080E0109719F0CD010E94F20AA19667
:10166000CDBFDEBFDF91CF911F910F91BF90AF90A3
:101670009F908F900895E95CE4CF4F925F926F92B4
:101680007F928F929F92AF92BF92CF92DF92EF9212
:10169000FF926B017C01AC019B010E948D15882398
:1016A00081F086EE9FE6FF90EF90DF90CF90BF90A5
:1016B000AF909F908F907F906F905F904F900C9421
:1016C000F20A46015701E894B7F82FEF3FEF4FE7D2
:1016D0005FE7C501B4010E948D1581110DC02FEF88
:1016E0003FEF4FE75FE7C501B4010E944E131816A4
:1016F0001CF48AEE9FE6D7CF2FEF3FEF4FE75FE472
:10170000C701B6010E94C91418161CF48EEE9FE69C
:10171000CACF2FEF3FEF4FE75FECC701B6010E9442
:101720004E1387FDF3CF20E030E0A901C701B601D9
:101730000E944E13B12CA12C87FF0AC06DE283E6F4
:1017400099E20E942D025C01F7FAF094F7F8F09408
:101750002AE037ED43EA5BE3C701B6010E9470124D
:101760002B013C010E94C1136B017C010E94F0130C
:101770009B01AC01C301B2010E946F122B013C011D
:101780004AE0C701B6010E94FF0A7C01EA0CFB1C7B
:1017900081E090E70E94F20AE80EF91E20E030E0B6
:1017A00040E251E4C301B2010E94D6142B013C0176
:1017B0000E94C1134B01B12CA12C4AE0C501B40118
:1017C0000E94FF0AE80EF91EC501B4010E94F01341
:1017D0009B01AC01C301B2010E946F1220E030E016
:1017E00040E251E40E94D6140E94C11390E080E0D0
:1017F0004AE00E94FF0A8E0D9F1DFF90EF90DF9040
:10180000CF90BF90AF909F908F907F906F905F90A0
:101810004F9008950C94ED160C94ED16CF92DF9234
:10182000EF92FF920F93FC01C12CB9E0DB2EBDE3D8
:10183000EB2EF12CC082D182E282F38214821582D7
:1018400081E090E086839783C0900028D0900128A3
:10185000E0900228F0900328F694E794D794C79478
:1018600090E04C155D056E057F0540F4F694E79415
:10187000D794C7949F5F9630A1F797E004600187E3
:10188000892F8095A82FA170B0E084E0AA0FBB1F1C
:101890008A95E1F791629A2B80E0232B09F480E48A
:1018A000982B90870F91FF90EF90DF90CF90089545
:1018B0000F931F93CF93DF93CDB7DEB72A97CDBF9A
:1018C000DEBF8C01FC01878181110CC0108611865E
:1018D000128613861486158616861786108A118A34
:1018E00081E087838091E305F8019681892B8093BD
:1018F000E30561E070E083810E94C80361E070E06D
:10190000F80184810E94C8038091C108846080939B
:10191000C1088091C00881628093C0084091FE296F
:101920005091FF296091002A7091012A0091022AAA
:101930002091042A3091052ACE0101960E940E0CB6
:1019400099858A859093C0088093C1082A96CDBF57
:10195000DEBFDF91CF911F910F9108955F926F923B
:101960007F928F929F92AF92BF92CF92DF92EF922F
:10197000FF920F931F93CF93DF93CDB7DEB762979C
:10198000CDBFDEBF3C010B871C872D873E87042F10
:101990004F87588B698B7A8B29893A894B855C856F
:1019A0006D857E85CE0101960E940E0C59841A85A4
:1019B000D30118968C91882319F081FF18C0F894F0
:1019C0005092C0081093C1086296CDBFDEBFDF9170
:1019D000CF911F910F91FF90EF90DF90CF90BF902C
:1019E000AF909F908F907F906F905F90089580FF51
:1019F000E7CFF30182849384A484B584C12CD12CD5
:101A00007601B0E09401A501B601C701A0E00E94F3
:101A10003016A9F1217030E040E050E060E070E065
:101A200080E090E00E943016E9F090E080E0B03372
:101A300070F48B2F869586958695F0E28F9FC00176
:101A40001124805F9B4F2B2F2770820F911DFC016B
:101A5000408193012B0F311DF901428BFC01208144
:101A6000287F20839401A501B601C70101E00E94EF
:101A7000151649015A016B017C01BF5FC3CFD30129
:101A80001E968D909D90AD90BC905197C12CD12CFD
:101A90007601B0E29401A501B601C701A0E00E9461
:101AA000301609F48DCF217030E040E050E060E066
:101AB00070E080E090E00E943016E9F090E080E075
:101AC000B03370F48B2F869586958695E0E28E9FD5
:101AD000C0011124805F9B4F2B2F2770820F911D17
:101AE000FC01408193012B0F311DF901428BFC0158
:101AF0002081287F20839401A501B601C70101E060
:101B00000E94151649015A016B017C01BF5FC2CFCB
:101B10001F920F920FB60F9211242F933F934F9362
:101B20005F936F937F938F939F93AF93BF934091F6
:101B30005729509158296091592970915A298091BB
:101B40005529909156292091532930915429420FBB
:101B5000531F611D711D2091512930915229820F0F
:101B6000931F883E23E0920730F0885E93404F5FDA
:101B70005F4F6F4F7F4F8093552990935629409325
:101B80005729509358296093592970935A29809165
:101B90005F2990916029A0916129B09162290196F5
:101BA000A11DB11D80935F2990936029A0936129A5
:101BB000B093622981E08093B60ABF91AF919F9163
:101BC0008F917F916F915F914F913F912F910F90E6
:101BD0000FBE0F901F9018951F920F920FB60F9285
:101BE00011242F933F934F935F936F937F938F9322
:101BF0009F93AF93BF93EF93FF9383E699E20E9485
:101C0000E801FF91EF91BF91AF919F918F917F91EB
:101C10006F915F914F913F912F910F900FBE0F9059
:101C20001F9018951F920F920FB60F9211242F93A9
:101C30003F934F935F936F937F938F939F93AF9354
:101C4000BF93EF93FF93E0916F29F0917029818109
:101C500081FD2FC06081809175298F5F8F73909176
:101C60007629891741F0E0917529F0E0ED59F64D9C
:101C7000618F809375298091FC299091FD290097AF
:101C800039F0DC01ED91FC910190F081E02D099596
:101C9000FF91EF91BF91AF919F918F917F916F9144
:101CA0005F914F913F912F910F900FBE0F901F901A
:101CB00018958081EDCF1F920F920FB60F921124CD
:101CC0002F933F934F935F936F937F938F939F9344
:101CD000AF93BF93CF93EF93FF93C091AB08C2FF35
:101CE0000AC010922429109223291092222984E0FC
:101CF0000E94AA0614C0C6FF2FC0809121298130FE
:101D000051F480912429E0911F29F091202990E03D
:101D1000099510922129C0FF14C00E94BA06FF91B4
:101D2000EF91CF91BF91AF919F918F917F916F91E3
:101D30005F914F913F912F910F900FBE0F901F9089
:101D4000189580E48093AB0881E00E94AA068091F8
:101D5000AB0885FFE4CFE1CFC7FF5CC0C3FF08C07D
:101D600010922429109223291092222983E0C0CFB7
:101D70008091A90880668093A9088091AB0881FFB3
:101D80002CC080912329882349F08091AB0884FFDF
:101D900005C082E08093AA0881E0AACF9091232910
:101DA000809122299817A8F4E091232980911A297B
:101DB00090911B29E80FF92FF11D80818093AD08C8
:101DC000809123298F5F8093232983E08093AA0841
:101DD000A6CF82E08093AA088BCF9091242980918E
:101DE0001E29981790F48091AD08E0912429209144
:101DF0001C2930911D29E20FF32FF11D8083809162
:101E000024298F5F80932429E0CF86E08093AA085D
:101E100082E06ECF85E06CCF1F920F920FB60F92CB
:101E200011242F933F938F939F93EF93FF93809170
:101E3000A508982F9C70E1F08091A50894E082FF9E
:101E400093E090932F298093A50881E090E0809300
:101E500025299093262910923029FF91EF919F9187
:101E60008F913F912F910F900FBE0F901F9018955B
:101E700086FF4EC020912C2990912B298091A50896
:101E800084FF15C080912829882379F083E080930E
:101E9000A40885E080932F291092302981E090E0FA
:101EA0008093252990932629D8CF81E0F0CF809187
:101EB0002A29821790F4E0912A2980912D29909166
:101EC0002E29E80FF92FF11D80818093A8088091B9
:101ED0002A298F5F80932A29C0CF809129298917C9
:101EE00060F484E090E080932529909326298091E6
:101EF000272981608093A708B0CF80912829882363
:101F000029F083E08093A40881E0C4CF81E0FACF78
:101F100087FF40C09091292980912B299817D8F4E8
:101F20008091A808E0912929209118293091192938
:101F3000E20FF32FF11D8083809129298F5F809319
:101F4000292990912B29809129298917D8F482E099
:101F50008093A40882CF80912829882389F087E084
:101F60008093A40882E080932F291092302981E089
:101F700090E0809325299093262910922B296DCFEC
:101F800085E0EECF80912829882311F087E0BACF31
:101F900085E0B8CF86E07ECFE3E6F9E212821382D5
:101FA00088EE93E0A0E0B0E084839583A683B783B6
:101FB00088E99FE68083918380E698E0848795870F
:101FC0008AE186878BE1878780E4808B128A138A77
:101FD000148A158A86E2868B178A108E1092FC2945
:101FE0001092FD29EEEFF9E280E099E0ADE3B0E078
:101FF00080839183A283B3831482158281E090E071
:1020000086839783A6E0BAE222EB3FE62D933C93CA
:10201000119717961C92179721E016962C931697F6
:1020200021E212962C93129722E214962C93149785
:1020300020E213962C93139726E115962C9315976F
:10204000E8E4FAE220ED3FE6208331831282138236
:10205000A483B5832EE130E0278330872FE130E081
:102060002187328740E856E968E970E04387548762
:10207000658776871786108A818B928B089588ED05
:1020800090E084BF9093610080E094E2A4EFB0E020
:102090008093002890930128A0930228B0930328EE
:1020A000809102068660809302068091000681601E
:1020B00080930006809102068F7C809302068091B7
:1020C000A0008F788093A0008091020680618093A9
:1020D00002061092E20581E08093E40583E080939C
:1020E000010A8FEF90E08093260A9093270A80E8F8
:1020F00090E08093380A9093390A80933A0A90933B
:102100003B0A80933C0A90933D0A8BE08093000A3F
:102110008091E50581608093E5058091E505826009
:102120008093E505E0E8FAE037E02FEF90E885E0FE
:1021300031832487958780837096E03C4AE0F407DA
:10214000B9F780E094E080935D2990935E298091B7
:102150005D2990915E292FEF30E0B9010E94AB1507
:1021600060935B2970935C2980915D2990915E2931
:10217000E8EEF3E0BF010E94AB1560935329709322
:10218000542980915D2990915E29BF010E94AB1571
:1021900080935129909352292093BC0A3093BD0A11
:1021A0008091B50A81608093B50A84E08093B00A7B
:1021B0008091B00A81608093B00A789461E070E009
:1021C0008CE10E94FD0261E070E08CE10E94A002BF
:1021D00061E070E08DE10E94FD0261E070E08DE160
:1021E0000E94A00261E070E083E20E94FD0261E0D3
:1021F00070E083E20E94A00261E070E08EE10E9444
:10220000FD0261E070E08EE10E94A00240E855E22C
:1022100060E070E083E699E20E94E90A80914C2A2E
:1022200090914D2A892B09F44BC061E070E08091B8
:102230004F2A0E94C80361E070E080914F2A0E94FB
:10224000330380914C2A90914D2ADC01ED91FC9151
:102250000688F789E02D09956FE088E49AE20E94EC
:1022600066098C36910509F44AC06FE088E49AE269
:102270000E9466098936910509F441C080914C2A73
:1022800090914D2A009739F1DC01ED91FC91008C81
:10229000F18DE02D099570E060E080914F2A0E9459
:1022A000330370E060E080914F2A0E94C80386E00B
:1022B00090E70E94F20A83E090E70E94F20AFFCFC3
:1022C00080914A2A90914B2ADC01ED91FC91068481
:1022D000F785E02DC0CF60E081E10E94380360E027
:1022E00080E10E94380380914A2A90914B2ADC01B8
:1022F000ED91FC910288F389E02D0995D8CF6CE42B
:1023000081E10E9438036AE480E10E94380360E0C2
:1023100086E10E94380369E087E10E94380382EF7A
:102320009FE60E94F20A83E090E70E94F20A8FB7CC
:10233000F8944091572950915829609159297091EA
:102340005A298FBFC0E0D0E088E49AE20E945B0A7D
:10235000892B09F49DC088E49AE20E94CD09892B5B
:1023600009F496C025E439E249E459E26DE479E2E2
:1023700088E49AE20E94610A29E339E24DE359E2D6
:1023800061E479E288E49AE20E94D4098FB7F89474
:1023900040915729509158296091592970915A2993
:1023A0008FBFC0904529D0904629E0904729F090F2
:1023B00048298090492990904A29A0904B29B090B3
:1023C0004C29A7019601C501B4010E94EF1221EE2C
:1023D0003EE245E652E40E94D6146093352970939C
:1023E00036298093372990933829A5019401C50196
:1023F000B4010E94D6144B015C01A7019601C701EC
:10240000B6010E94D6149B01AC01C501B4010E9423
:1024100070120E9449159B01AC0180914D29909149
:102420004E29A0914F29B0915029BC01CD0190585F
:102430000E94EF1221EE3EE245E652E40E94D614DD
:1024400060933129709332298093332990933429F2
:1024500080E290E70E94F20A609135297091362956
:1024600080913729909138290E943D0B87E290E7AF
:102470000E94F20A609131297091322980913329AA
:10248000909134290E943D0B83E090E70E94F20A6C
:102490000E9445046B017C01B0E2CB0EB1EADB1E69
:1024A000B7E0EB1EF11C20E2C21621EAD20627E0BB
:1024B000E206F10438F40E944504C616D706E80681
:1024C000F906C8F30E9445046C157D058E059F052D
:1024D000C8F3209709F438CF0E94000035CF505838
:1024E000BB27AA270E9487120C948F140E94811484
:1024F00038F00E94881420F039F49F3F19F426F434
:102500000C9457140EF4E095E7FB0C945114E92F4A
:102510000E94A01458F3BA1762077307840795073F
:1025200020F079F4A6F50C94C2140EF4E0950B2E6D
:10253000BA2FA02D0B01B90190010C01CA01A00115
:102540001124FF27591B99F0593F50F4503E68F170
:102550001A16F040A22F232F342F4427585FF3CFB1
:10256000469537952795A795F0405395C9F77EF482
:102570001F16BA0B620B730B840BBAF09150A1F0CB
:10258000FF0FBB1F661F771F881FC2F70EC0BA0F51
:10259000621F731F841F48F4879577956795B795D9
:1025A000F7959E3F08F0B0CF9395880F08F09927D4
:1025B000EE0F9795879508950E94811460F080E84A
:1025C00091E009F49EEF0E94881428F040E851E061
:1025D00071F45EEF0CC00C9457140C94C214E92FE4
:1025E000E0780E94A01440F3092E052AB1F32617C3
:1025F00037074807590738F00E2E07F8E02569F02D
:10260000E025E0640AC0EF6307F8009407FADB01F5
:10261000B9019D01DC01CA01AD01EF930E9466136F
:102620000E948F140E941F135F91552339F02BEDE8
:102630003FE049E450FD49EC0C9470120895DF939B
:10264000DD27B92FBF7740E85FE316161706480766
:102650005B0718F4D92F0E94CE149F938F937F931A
:102660006F930E948915E0EAF2E00E945A140E94DA
:102670008F142F913F914F915F910E94E914DD23B8
:1026800051F09058A2EA2AED3FE049EC5FE3D078A0
:102690005D270E948712DF910C948F140E942D14E5
:1026A00008F481E008950E94881458F00E94811473
:1026B00040F029F45F3F29F00C94511451110C940F
:1026C000C3140C9457140E94A01468F39923B1F317
:1026D000552391F3951B550BBB27AA276217730748
:1026E000840738F09F5F5F4F220F331F441FAA1FDC
:1026F000A9F335D00E2E3AF0E0E832D09150504098
:10270000E695001CCAF72BD0FE2F29D0660F771F45
:10271000881FBB1F261737074807AB07B0E809F02B
:10272000BB0B802DBF01FF2793585F4F3AF09E3FB0
:10273000510578F00C9451140C94C3145F3FE4F3EA
:10274000983ED4F3869577956795B795F7959F5FF3
:10275000C9F7880F911D9695879597F90895E1E03F
:10276000660F771F881FBB1F621773078407BA079E
:1027700020F0621B730B840BBA0BEE1F88F7E095F9
:1027800008950E94A81488F09F5798F0B92F9927B0
:10279000B751B0F0E1F0660F771F881F991F1AF04C
:1027A000BA95C9F714C0B13091F00E94C214B1E0DB
:1027B00008950C94C214672F782F8827B85F39F0DA
:1027C000B93FCCF3869577956795B395D9F73EF4E5
:1027D00090958095709561957F4F8F4F9F4F08958D
:1027E000E89409C097FB3EF49095809570956195AB
:1027F0007F4F8F4F9F4F9923A9F0F92F96E9BB2761
:102800009395F695879577956795B795F111F8CFDC
:10281000FAF4BB0F11F460FF1BC06F5F7F4F8F4F47
:102820009F4F16C0882311F096E911C0772321F03D
:102830009EE8872F762F05C0662371F096E8862FD5
:1028400070E060E02AF09A95660F771F881FDAF72C
:10285000880F9695879597F90895990F0008550F59
:10286000AA0BE0E8FEEF16161706E807F907C0F016
:1028700012161306E407F50798F0621B730B840B1E
:10288000950B39F40A2661F0232B242B252B21F4F8
:1028900008950A2609F4A140A6958FEF811D811D98
:1028A000089597F99F6780E870E060E008959FEFD2
:1028B00080EC0895DF93CF931F930F93FF92EF92D5
:1028C000DF927B018C01689406C0DA2EEF010E9432
:1028D000E914FE01E894A591259135914591559112
:1028E000A6F3EF010E948712FE019701A801DA9476
:1028F00069F7DF90EF90FF900F911F91CF91DF91DB
:10290000089500240A941616170618060906089555
:1029100000240A9412161306140605060895092EBB
:102920000394000C11F4882352F0BB0F40F4BF2B2A
:1029300011F460FF04C06F5F7F4F8F4F9F4F08956A
:1029400057FD9058440F551F59F05F3F71F0479560
:10295000880F97FB991F61F09F3F79F08795089545
:10296000121613061406551FF2CF4695F1DF08C064
:10297000161617061806991FF1CF86957105610581
:1029800008940895E894BB2766277727CB0197F929
:1029900008950E942D1408F48FEF08959B01AC0157
:1029A00060E070E080E89FE30C9492150E94E914C7
:1029B0000C948F140E94811438F00E94881420F027
:1029C000952311F00C9451140C94571411240C9469
:1029D000C3140E94A01470F3959FC1F3950F50E0AB
:1029E000551F629FF001729FBB27F00DB11D639FC1
:1029F000AA27F00DB11DAA1F649F6627B00DA11D67
:102A0000661F829F2227B00DA11D621F739FB00D0C
:102A1000A11D621F839FA00D611D221F749F33277C
:102A2000A00D611D231F849F600D211D822F762F15
:102A30006A2F11249F5750409AF0F1F088234AF0F2
:102A4000EE0FFF1FBB1F661F771F881F915050405E
:102A5000A9F79E3F510580F00C9451140C94C314B7
:102A60005F3FE4F3983ED4F3869577956795B795E5
:102A7000F795E7959F5FC1F7FE2B880F911D9695FF
:102A8000879597F9089519F416F40C9457140C943B
:102A900096150E94A814B8F39923C9F3B6F39F576B
:102AA000550B87FF0E94A4150024A0E640EA900180
:102AB00080585695979528F4805C660F771F881F7D
:102AC00020F026173707480730F4621B730B840B7E
:102AD000202931294A2BA6951794079420253125C2
:102AE0004A2758F7660F771F881F20F026173707E9
:102AF000480730F4620B730B840B200D311D411D10
:102B0000A09581F7B901842F9158880F96958795E4
:102B100008959B01AC010C94D6140E942D14880BCF
:102B2000990B08950E9463130C948F149F3F31F00A
:102B3000915020F4879577956795B795880F911DEB
:102B40009695879597F9089591505040660F771F95
:102B5000881FD2F70895AA1BBB1B51E107C0AA1F0B
:102B6000BB1FA617B70710F0A61BB70B881F991F2E
:102B70005A95A9F780959095BC01CD010895A1E2E1
:102B80001A2EAA1BBB1BFD010DC0AA1FBB1FEE1FE7
:102B9000FF1FA217B307E407F50720F0A21BB30B32
:102BA000E40BF50B661F771F881F991F1A9469F7AE
:102BB00060957095809590959B01AC01BD01CF010A
:102BC0000895052E97FB1EF400940E94F81557FDFA
:102BD00007D00E94BF1507FC03D04EF40C94F815E3
:102BE00050954095309521953F4F4F4F5F4F089539
:102BF00090958095709561957F4F8F4F9F4F089569
:102C00000E944216A59F900DB49F900DA49F800D29
:102C1000911D11240895B7FF0C9400160E94001610
:102C2000821B930B089597FD1094002E083098F0A6
:102C30000850232F342F452F562F672F782F892F99
:102C4000912DF4CF1594979587957795679557951E
:102C50004795379527950A95AAF71124002D0895D1
:102C60000024A7FD00942A17300540055005600593
:102C70007005800590050895EE0FFF1F0590F491F3
:102C8000E02D0994A29FB001B39FC001A39F700DD6
:102C9000811D1124911DB29F700D811D1124911D64
:102CA00008950F931F93CF93DF938230910510F413
:102CB00082E090E0E0915D2AF0915E2A30E020E031
:102CC000B0E0A0E0309799F42115310509F44AC02D
:102CD000281B390B24303105D8F58A819B81611579
:102CE000710589F1FB0182839383FE0111C040814C
:102CF00051810281138148175907E0F0481759079D
:102D000099F4109761F012960C93129713961C93F6
:102D10003296CF01DF91CF911F910F9108950093CB
:102D20005D2A10935E2AF4CF2115310551F0421728
:102D3000530738F0A901DB019A01BD01DF01F80159
:102D4000C1CFEF01F9CF80935D2A90935E2ACDCF5A
:102D5000FE01E20FF31F81939193225031092883E2
:102D60003983D7CF20915B2A30915C2A232B41F401
:102D7000209106283091072820935B2A30935C2A03
:102D800020910428309105282115310541F42DB7F3
:102D90003EB74091082850910928241B350BE0913B
:102DA0005B2AF0915C2AE217F307A0F42E1B3F0B7D
:102DB0002817390778F0AC014E5F5F4F24173507AD
:102DC00048F04E0F5F1F40935B2A50935C2A81931B
:102DD00091939FCFF0E0E0E09CCFCF93DF930097FB
:102DE000E9F0FC01329712821382A0915D2AB09122
:102DF0005E2AED0130E020E01097A1F420813181BE
:102E0000820F931F20915B2A30915C2A2817390783
:102E100009F061C0E0935B2AF0935C2ADF91CF91C7
:102E20000895EA01CE17DF07E8F54A815B819E012C
:102E300041155105B1F7E901EA83FB8349915991A5
:102E4000C40FD51FEC17FD0761F4808191810296B4
:102E5000840F951FE90188839983828193818A83F6
:102E60009B83F0E0E0E012968D919C911397009780
:102E7000B9F52D913C911197CD010296820F931FC8
:102E800020915B2A30915C2A2817390739F6309750
:102E900051F510925D2A10925E2AA0935B2AB0939E
:102EA0005C2ABCCFC283D38340815181840F951F9C
:102EB000C817D90761F44E5F5F4F88819981480F29
:102EC000591F408351838A819B818283938321157B
:102ED000310509F0B0CFE0935D2AF0935E2A9ECFD2
:102EE000FD01DC01C0CF12821382D7CFF894FFCF4F
:102EF00000000003000102000001010000000000CA
:102F000000000000000000000000000000000000C1
:102F10000000000000000000000504000506020497
:102F20000103000100010200010203040502030382
:102F30000504060504060703070001020203000159
:102F40000706020200050201050004010104040451
:102F50000303030303030000020000030101000058
:102F600001020202020505050503052010012040AB
:102F700004100208010201020401020408102004E6
:102F80000808201040201040800880010204040836
:102F900001028040000000002D02740492017E02B4
:102FA000C301A101B501E90ACD03CF01A1040000CD
:102FB0000000A3040A0CF304C404A404F705A60546
:102FC000AE0CFD0447064106580C3906000000000F
:102FD000E80A0C0C610AC8095B0AD409C809CD09C2
:102FE0008A097D0982096E616E00696E66006F76DE
:102FF0006600494D5520696E697469616C697A652E
:10300000642E000D0A004661696C656420746F20AF
:10301000696E697469616C697A6520494D55210052
:10302000526F6C6C3A2000207C2050697463683ABF
:0230300020007E
:0A3032000024F40000005F2A800073
:0400000300000200F7
:00000001FF
